{
  "contractName": "Election",
  "abi": [
    {
      "inputs": [
        {
          "internalType": "string[]",
          "name": "_info",
          "type": "string[]"
        },
        {
          "internalType": "string[]",
          "name": "_candidates",
          "type": "string[]"
        }
      ],
      "stateMutability": "nonpayable",
      "type": "constructor"
    },
    {
      "inputs": [
        {
          "internalType": "uint256",
          "name": "",
          "type": "uint256"
        }
      ],
      "name": "candidates",
      "outputs": [
        {
          "internalType": "uint256",
          "name": "id",
          "type": "uint256"
        },
        {
          "internalType": "string",
          "name": "name",
          "type": "string"
        },
        {
          "internalType": "uint256",
          "name": "voteCount",
          "type": "uint256"
        }
      ],
      "stateMutability": "view",
      "type": "function"
    },
    {
      "inputs": [],
      "name": "candidatesCount",
      "outputs": [
        {
          "internalType": "uint256",
          "name": "",
          "type": "uint256"
        }
      ],
      "stateMutability": "view",
      "type": "function"
    },
    {
      "inputs": [],
      "name": "description",
      "outputs": [
        {
          "internalType": "string",
          "name": "",
          "type": "string"
        }
      ],
      "stateMutability": "view",
      "type": "function"
    },
    {
      "inputs": [],
      "name": "name",
      "outputs": [
        {
          "internalType": "string",
          "name": "",
          "type": "string"
        }
      ],
      "stateMutability": "view",
      "type": "function"
    },
    {
      "inputs": [
        {
          "internalType": "address",
          "name": "",
          "type": "address"
        }
      ],
      "name": "voters",
      "outputs": [
        {
          "internalType": "bool",
          "name": "",
          "type": "bool"
        }
      ],
      "stateMutability": "view",
      "type": "function"
    },
    {
      "inputs": [
        {
          "internalType": "uint256",
          "name": "_candidate",
          "type": "uint256"
        }
      ],
      "name": "vote",
      "outputs": [],
      "stateMutability": "nonpayable",
      "type": "function"
    }
  ],
  "bytecode": "0x608060405260006004553480156200001657600080fd5b50604051620012263803806200122683398181016040528101906200003c91906200044b565b600081511162000083576040517f08c379a00000000000000000000000000000000000000000000000000000000081526004016200007a9062000557565b60405180910390fd5b816000815181106200009a576200009962000579565b5b602002602001015160009081620000b29190620007f3565b5081600181518110620000ca57620000c962000579565b5b602002602001015160019081620000e29190620007f3565b5060005b815181101562000134576200011e8282815181106200010a576200010962000579565b5b60200260200101516200013d60201b60201c565b80806200012b9062000909565b915050620000e6565b50505062000956565b604051806060016040528060045481526020018281526020016000815250600260006004548152602001908152602001600020600082015181600001556020820151816001019081620001919190620007f3565b506040820151816002015590505060046000815480929190620001b49062000909565b919050555050565b6000604051905090565b600080fd5b600080fd5b600080fd5b6000601f19601f8301169050919050565b7f4e487b7100000000000000000000000000000000000000000000000000000000600052604160045260246000fd5b6200022082620001d5565b810181811067ffffffffffffffff82111715620002425762000241620001e6565b5b80604052505050565b600062000257620001bc565b905062000265828262000215565b919050565b600067ffffffffffffffff821115620002885762000287620001e6565b5b602082029050602081019050919050565b600080fd5b600080fd5b600067ffffffffffffffff821115620002c157620002c0620001e6565b5b620002cc82620001d5565b9050602081019050919050565b60005b83811015620002f9578082015181840152602081019050620002dc565b60008484015250505050565b60006200031c6200031684620002a3565b6200024b565b9050828152602081018484840111156200033b576200033a6200029e565b5b62000348848285620002d9565b509392505050565b600082601f830112620003685762000367620001d0565b5b81516200037a84826020860162000305565b91505092915050565b60006200039a62000394846200026a565b6200024b565b90508083825260208201905060208402830185811115620003c057620003bf62000299565b5b835b818110156200040e57805167ffffffffffffffff811115620003e957620003e8620001d0565b5b808601620003f8898262000350565b85526020850194505050602081019050620003c2565b5050509392505050565b600082601f83011262000430576200042f620001d0565b5b81516200044284826020860162000383565b91505092915050565b60008060408385031215620004655762000464620001c6565b5b600083015167ffffffffffffffff811115620004865762000485620001cb565b5b620004948582860162000418565b925050602083015167ffffffffffffffff811115620004b857620004b7620001cb565b5b620004c68582860162000418565b9150509250929050565b600082825260208201905092915050565b7f54686572652073686f756c642062652061746c6561737420312063616e64696460008201527f6174652e00000000000000000000000000000000000000000000000000000000602082015250565b60006200053f602483620004d0565b91506200054c82620004e1565b604082019050919050565b60006020820190508181036000830152620005728162000530565b9050919050565b7f4e487b7100000000000000000000000000000000000000000000000000000000600052603260045260246000fd5b600081519050919050565b7f4e487b7100000000000000000000000000000000000000000000000000000000600052602260045260246000fd5b60006002820490506001821680620005fb57607f821691505b602082108103620006115762000610620005b3565b5b50919050565b60008190508160005260206000209050919050565b60006020601f8301049050919050565b600082821b905092915050565b6000600883026200067b7fffffffffffffffffffffffffffffffffffffffffffffffffffffffffffffffff826200063c565b6200068786836200063c565b95508019841693508086168417925050509392505050565b6000819050919050565b6000819050919050565b6000620006d4620006ce620006c8846200069f565b620006a9565b6200069f565b9050919050565b6000819050919050565b620006f083620006b3565b62000708620006ff82620006db565b84845462000649565b825550505050565b600090565b6200071f62000710565b6200072c818484620006e5565b505050565b5b8181101562000754576200074860008262000715565b60018101905062000732565b5050565b601f821115620007a3576200076d8162000617565b62000778846200062c565b8101602085101562000788578190505b620007a062000797856200062c565b83018262000731565b50505b505050565b600082821c905092915050565b6000620007c860001984600802620007a8565b1980831691505092915050565b6000620007e38383620007b5565b9150826002028217905092915050565b620007fe82620005a8565b67ffffffffffffffff8111156200081a5762000819620001e6565b5b620008268254620005e2565b6200083382828562000758565b600060209050601f8311600181146200086b576000841562000856578287015190505b620008628582620007d5565b865550620008d2565b601f1984166200087b8662000617565b60005b82811015620008a5578489015182556001820191506020850194506020810190506200087e565b86831015620008c55784890151620008c1601f891682620007b5565b8355505b6001600288020188555050505b505050505050565b7f4e487b7100000000000000000000000000000000000000000000000000000000600052601160045260246000fd5b600062000916826200069f565b91507fffffffffffffffffffffffffffffffffffffffffffffffffffffffffffffffff82036200094b576200094a620008da565b5b600182019050919050565b6108c080620009666000396000f3fe608060405234801561001057600080fd5b50600436106100625760003560e01c80630121b93f1461006757806306fdde03146100835780632d35a8a2146100a15780633477ee2e146100bf5780637284e416146100f1578063a3ec138d1461010f575b600080fd5b610081600480360381019061007c91906104d3565b61013f565b005b61008b6102a4565b6040516100989190610590565b60405180910390f35b6100a9610332565b6040516100b691906105c1565b60405180910390f35b6100d960048036038101906100d491906104d3565b610338565b6040516100e8939291906105dc565b60405180910390f35b6100f96103ea565b6040516101069190610590565b60405180910390f35b61012960048036038101906101249190610678565b610478565b60405161013691906106c0565b60405180910390f35b600360003373ffffffffffffffffffffffffffffffffffffffff1673ffffffffffffffffffffffffffffffffffffffff16815260200190815260200160002060009054906101000a900460ff16156101cc576040517f08c379a00000000000000000000000000000000000000000000000000000000081526004016101c390610727565b60405180910390fd5b600454811080156101de575060008110155b61021d576040517f08c379a000000000000000000000000000000000000000000000000000000000815260040161021490610793565b60405180910390fd5b6001600360003373ffffffffffffffffffffffffffffffffffffffff1673ffffffffffffffffffffffffffffffffffffffff16815260200190815260200160002060006101000a81548160ff02191690831515021790555060026000828152602001908152602001600020600201600081548092919061029c906107e2565b919050555050565b600080546102b190610859565b80601f01602080910402602001604051908101604052809291908181526020018280546102dd90610859565b801561032a5780601f106102ff5761010080835404028352916020019161032a565b820191906000526020600020905b81548152906001019060200180831161030d57829003601f168201915b505050505081565b60045481565b600260205280600052604060002060009150905080600001549080600101805461036190610859565b80601f016020809104026020016040519081016040528092919081815260200182805461038d90610859565b80156103da5780601f106103af576101008083540402835291602001916103da565b820191906000526020600020905b8154815290600101906020018083116103bd57829003601f168201915b5050505050908060020154905083565b600180546103f790610859565b80601f016020809104026020016040519081016040528092919081815260200182805461042390610859565b80156104705780601f1061044557610100808354040283529160200191610470565b820191906000526020600020905b81548152906001019060200180831161045357829003601f168201915b505050505081565b60036020528060005260406000206000915054906101000a900460ff1681565b600080fd5b6000819050919050565b6104b08161049d565b81146104bb57600080fd5b50565b6000813590506104cd816104a7565b92915050565b6000602082840312156104e9576104e8610498565b5b60006104f7848285016104be565b91505092915050565b600081519050919050565b600082825260208201905092915050565b60005b8381101561053a57808201518184015260208101905061051f565b60008484015250505050565b6000601f19601f8301169050919050565b600061056282610500565b61056c818561050b565b935061057c81856020860161051c565b61058581610546565b840191505092915050565b600060208201905081810360008301526105aa8184610557565b905092915050565b6105bb8161049d565b82525050565b60006020820190506105d660008301846105b2565b92915050565b60006060820190506105f160008301866105b2565b81810360208301526106038185610557565b905061061260408301846105b2565b949350505050565b600073ffffffffffffffffffffffffffffffffffffffff82169050919050565b60006106458261061a565b9050919050565b6106558161063a565b811461066057600080fd5b50565b6000813590506106728161064c565b92915050565b60006020828403121561068e5761068d610498565b5b600061069c84828501610663565b91505092915050565b60008115159050919050565b6106ba816106a5565b82525050565b60006020820190506106d560008301846106b1565b92915050565b7f566f7465722068617320616c726561647920566f746564210000000000000000600082015250565b600061071160188361050b565b915061071c826106db565b602082019050919050565b6000602082019050818103600083015261074081610704565b9050919050565b7f496e76616c69642063616e64696461746520746f20566f746521000000000000600082015250565b600061077d601a8361050b565b915061078882610747565b602082019050919050565b600060208201905081810360008301526107ac81610770565b9050919050565b7f4e487b7100000000000000000000000000000000000000000000000000000000600052601160045260246000fd5b60006107ed8261049d565b91507fffffffffffffffffffffffffffffffffffffffffffffffffffffffffffffffff820361081f5761081e6107b3565b5b600182019050919050565b7f4e487b7100000000000000000000000000000000000000000000000000000000600052602260045260246000fd5b6000600282049050600182168061087157607f821691505b6020821081036108845761088361082a565b5b5091905056fea26469706673582212203eb4c5fe94d7e7c48027564aebce3609fdfe739858ac77f9b27e04ebb1ccacda64736f6c63430008110033",
  "immutableReferences": {},
  "source": "// SPDX-License-Identifier: MIT\npragma solidity ^0.8.17;\n\ncontract Election {\n  string public name;\n  string public description;\n\n  struct Candidate {\n    uint256 id;\n    string name;\n    uint256 voteCount;\n  }\n\n  mapping(uint256 => Candidate) public candidates;\n  mapping(address => bool) public voters;\n  uint256 public candidatesCount = 0;\n\n  constructor(string[] memory _info, string[] memory _candidates) {\n    require(_candidates.length > 0, 'There should be atleast 1 candidate.');\n    name = _info[0];\n    description = _info[1];\n    for (uint256 i = 0; i < _candidates.length; i++) {\n      addCandidate(_candidates[i]);\n    }\n  }\n\n  function addCandidate(string memory _name) private {\n    candidates[candidatesCount] = Candidate(candidatesCount, _name, 0);\n    candidatesCount++;\n  }\n\n  function vote(uint256 _candidate) public {\n    require(!voters[msg.sender], 'Voter has already Voted!');\n    require(_candidate < candidatesCount && _candidate >= 0, 'Invalid candidate to Vote!');\n    voters[msg.sender] = true;\n    candidates[_candidate].voteCount++;\n  }\n}\n",
  "sourcePath": "/Users/jota/Workspace/Projects/web3-apps/truffle-project/contracts/Election.sol",
  "compiler": {
    "name": "solc",
    "version": "0.8.17+commit.8df45f5f.Emscripten.clang"
  },
  "schemaVersion": "3.4.10",
  "updatedAt": "2022-09-16T12:29:18.140Z",
  "devdoc": {
    "kind": "dev",
    "methods": {},
    "version": 1
  },
  "userdoc": {
    "kind": "user",
    "methods": {},
    "version": 1
  }
}